:03000000020A9A57
:0C0A9A00787FE4F6D8FD75812C020AE19B
:100D620054656D7065726174757265416C61726D06
:100D72000057617474696E67002E202000202E20B7
:100D82000020202E0054656D3A2B2020202E204377
:100D92000053746174653A005761726E696E670040
:080DA2004E6F726D616C2000C0
:030FF100012A1EB4
:03100000C2A52264
:03100300D2A52251
:100CC3007BFF7A0D79627D017F01120E1B7BFF7A18
:100CD3000D79737D047F03120E1B1209F8E4F510DE
:100CE3007BFF7A0D797B7D0B7F03120E1B7BFF7AD3
:100CF3000D797F7D0B7F03120E1B7BFF7A0D7983AA
:100D03007D0B7F03120E1B0510E510C3940A40D020
:030D1300020F9D2F
:100ECC007BFF7A0D79627D017F01120E1B7BFF7A0D
:100EDC000D79877D047F02120E1B7BFF7A0D7993AF
:070EEC007D037F03020E1BD2
:100E4900E527FB7A007514027D097F02120DAAE5D8
:100E590028FB7A007514017D0B7F02120DAAE52982
:0D0E6900FB7A007514017D0D7F02020DAAB9
:100B2600120952120CC3120ECC1209F8AE2BAF2CBE
:100B36007C007D641208EF8F27AE2BAF2C7C007DE6
:100B46000A1208EF7C007D0A1208EF8D28AE2BAF43
:100B56002C7C007D0A1208EF8D29120E49E52775B7
:100B6600F00AA47C002528FFEC35F0FEC3EF952A99
:100B76007480F86E9840121210007BFF7A0D799AF5
:100B86007D097F03120E1B80A01210037BFF7A0DD6
:0B0B960079A27D097F03120E1B808EE8
:1000030000000000000000000000000000000000ED
:10001300000000F800000000000000333000000082
:1000230000100C06100C0600000000000000000089
:1000330040C07840C0784000043F04043F040400FB
:10004300007088FC08300000001820FF211E00000B
:10005300F008F000E018000000211C031E211E0020
:1000630000F00888700000001E21232419272110A6
:1000730010160E0000000000000000000000000049
:10008300000000E0180402000000000718204000F0
:1000930000020418E00000000040201807000000E0
:1000A300404080F0804040000202010F0102020044
:1000B300000000F0000000000101011F0101010028
:1000C300000000000000000080B07000000000008D
:1000D3000000000000000000000101010101010116
:1000E30000000000000000000030300000000000AD
:1000F3000000000080601804006018060100000082
:1001030000E010080810E000000F102020100F007E
:10011300001010F8000000000020203F2020000005
:10012300007008080888700000302824222130005D
:1001330000300888884830000018202020110E0065
:100143000000C02010F8000000070424243F24000E
:1001530000F80888880808000019212020110E00E3
:1001630000E0108888180000000F112020110E00F5
:1001730000380808C83808000000003F00000000ED
:100183000070880808887000001C222121221C00AE
:1001930000E010080810E0000000312222110F00D7
:1001A300000000C0C000000000000030300000006C
:1001B30000000080000000000000806000000000DC
:1001C30000008040201008000001020408102000F5
:1001D3004040404040404000040404040404040040
:1001E30000081020408000000020100804020100D5
:1001F300007048080808F0000000003036010000D5
:10020300C030C828E810E0000718272423140B0087
:100213000000C038E0000000203C23020227382001
:1002230008F8888888700000203F202020110E00E5
:10023300C0300808080838000718202020100800DC
:1002430008F808080810E000203F202020100F00C5
:1002530008F88888E8081000203F20202320180091
:1002630008F88888E8081000203F200003000000F9
:10027300C03008080838000007182020221E02009A
:1002830008F808000008F808203F210101213F2059
:10029300000808F8080800000020203F2020000084
:1002A30000000808F8080800C08080807F00000074
:1002B30008F888C028180800203F200126382000AD
:1002C30008F8080000000000203F20202020300014
:1002D30008F8F800F8F80800203F003F003F20002E
:1002E30008F830C00008F808203F200007183F0036
:1002F300E01008080810E0000F10202020100F0065
:1003030008F808080808F000203F21010101000057
:10031300E01008080810E0000F18242438504F009C
:1003230008F8888888887000203F2000030C30205C
:1003330000708808080838000038202121221C009A
:10034300180808F8080818000000203F20000000E3
:1003530008F808000008F808001F202020201F00CC
:100363000878880000C83808000007380E0100002C
:10037300F80800F80008F800033C0700073C0300F6
:10038300081868808068180820302C03032C30205C
:100393000838C800C83808000000203F20000000CB
:1003A30010080808C8380800203826212020180023
:1003B300000000FE020202000000007F40404000F7
:1003C300000C30C000000000000000010638C0002F
:1003D30000020202FE000000004040407F000000D7
:1003E30000000402020204000000000000000000FC
:1003F30000000000000000008080808080808080FA
:1004030000020204000000000000000000000000E1
:1004130000008080808000000019242222223F20D7
:1004230008F8008080000000003F112020110E001A
:100433000000008080800000000E112020201100A9
:10044300000000808088F800000E112020103F205B
:100453000000808080800000001F222222221300DF
:10046300008080F0888888180020203F202000002A
:100473000000808080808000006B949494936000DF
:1004830008F8008080800000203F210000203F20EA
:1004930000809898000000000020203F20200000EA
:1004A300000000809898000000C08080807F0000DA
:1004B30008F8000080808000203F24022D302000B7
:1004C300000808F8000000000020203F2020000062
:1004D3008080808080808000203F20003F20003F7C
:1004E3008080008080800000203F210000203F208A
:1004F3000000808080800000001F202020201F003B
:10050300808000808000000080FFA12020110E0069
:100513000000008080808000000E112020A0FF805A
:10052300808080008080800020203F212000010007
:10053300000080808080800000332424242419005C
:10054300008080E0808000000000001F2020000069
:100553008080000000808000001F202020103F20AA
:10056300808080000080808000010E30080601003A
:1005730080800080008080800F300C030C300F00DF
:1005830000808000808080000020312E0E3120000A
:10059300808080000080808080818E70180601003A
:1005A30000808080808080000021302C2221300058
:1005B30000000000807C020200000000003F404079
:1005C30000000000FF00000000000000FF0000002A
:1005D3000002027C800000000040403F0000000059
:1005E30000060101020204040000000000000000F4
:090FE800D280D281C281C28122B3
:070FF900C281D280D28122E7
:0B0FCA00120EFA120FD5AF04120EFA3F
:050FD500D280C2802261
:070EF300AC07120FE87F7845
:100EFA00C280E4FEAD07530580BD8004D281800222
:0E0F0A00C281EF25E0FFD280C2800EBE08E655
:010F180022B6
:0E0FDA00120EF3120FD5E4FF120FCA020FF928
:100F63003EF583E5822BF582E43583F583E493FF35
:0E0F7300120EF3120FD57F40120FCA020FF9B3
:080F3F00FFE91475F008A4FDA0
:100F4700AB05EF44B0FF120FDAEB54F0C4540F4473
:0C0F570010FF120FDAEB540FFF020FDA4C
:100F9D00E4FAAF02E4FD120F47E4FBE4FF120F7316
:080FAD000BBB80F70ABA08EA49
:010FB5002219
:060C0B008F17AA03A905E2
:100C1100E5171425E0120F3FE4FBEAFF3395E0FEF0
:100C2100EFC4F8540FC868FFEEC454F048FE7403D3
:100C31002FF58274FE120F630BBB08DEE51725E06A
:100C410014120F3FE4FBEAFF3395E0FEEFC4F854C2
:100C51000FC868FFEEC454F048FE740B2FF5827480
:080C6100FE120F630BBB08DE5D
:010C69002268
:0A0E1B008F118D128B138A148915B4
:100E2500E4F516AB13AA14A915851682758300126D
:100E350008B0FB600EE5122516FDAF11120C0B056F
:030E45001680E034
:010E48002287
:100DEB00FFE49400CF24FFFDEF7F0A34FFFC7E006D
:080DFB008E168F17AB05AA0448
:100E03007F017E00EB1BAC0270011A4C6009AC162B
:070E1300AD171208DD80EDB0
:010E1A0022B5
:080DAA008F108D118A128B13CA
:100DB200E4F515E515C39514502EC3E514951512E7
:100DC2000DEBAC12AD13CFCDCFCECCCE1208EF7C53
:100DD200007D0A1208EFED2430FBE5112515FDAF69
:080DE20010120C0B051580CB6B
:010DEA0022E6
:080BA1008F088D098A0A8B0BF5
:100BA900C3E50A9400400D7B2B120C0B850A0E85B8
:100BB9000B0F80147B2DAD09AF08120C0BC3E49504
:100BC9000BF50FE4950AF50EE4F50DE50DC3950C4B
:100BD900502FC3E50C950D120DEBAC0EAD0FCFCD1B
:100BE900CFCECCCE1208EF7C007D0A1208EFED249F
:100BF90030FBE509250D04FDAF08120C0B050D802E
:010C0900CA20
:010C0A0022C7
:080C6A008F188D198A1A8B1BEB
:100C7200E4F51DE51DC3951C5046C3E51C951DFFFB
:100C8200E49400CF24FFFDEF7F10120DF6AC1AADF5
:100C92001BCFCDCFCECCCE1208EFEF540FF51EC333
:100CA200940AE5195009251DFDE51E24308007250B
:100CB2001DFDE51E2437FBAF18120C0B051D80B37A
:010CC200220F
:080D16008F218D228A238B241A
:100D1E00E4F526E526C395255039C3E5259526FF2E
:100D2E00E49400CF24FFFDEF34FFFC7F027E00121F
:100D3E000DFBAC23AD24CFCDCFCECCCE1208EFEF32
:100D4E0054012430FBE5222526FDAF21120C0B05A4
:030D5E002680C02C
:010D6100226F
:10095200E4FFFEE4FDFC0DBD00010CBC03F8BDE8A4
:10096200F50FBF00010EBE03EABFE8E77FAE120F2C
:10097200DAE4FF120FDA7F10120FDA7F40120FDA79
:100982007FB0120FDA7F81120FDA7FFF120FDA7F48
:10099200A1120FDA7FA6120FDA7FA8120FDA7F3FB9
:1009A200120FDA7FC8120FDA7FD3120FDAE4FF12C6
:1009B2000FDA7FD5120FDA7F80120FDA7FD8120F8B
:1009C200DA7F05120FDA7FD9120FDA7FF1120FDA0E
:1009D2007FDA120FDA7F12120FDA7FDB120FDA7F61
:1009E20030120FDA7F8D120FDA7F14120FDA7FAF17
:0609F200120FDA020F9D56
:040FF400022B0000CC
:020E76008F13D8
:100E7800E4F514C2A4E5131392A47F3C7E00120F7C
:100E8800B6D2A4E513C313F5130514E514C39408E7
:090E980040E17F3C7E00020FB630
:100F1900E4F513C2A4E514C313F514D2A430A40351
:100F29004314807F3C7E00120FB60513E513C3946A
:050F39000840E0AF14C8
:010F3E002290
:100EA100C200D2A47F487E00120FB6C2A47FF47E96
:100EB10001120FB6D2A47F3C7E00120FB6A2A492FB
:0A0EC100007F3C7E00120FB6A20075
:010ECB002204
:1009F8007F0A7E00120F81120EA17F017E00120F66
:100A0800817FCC120E767F44120E767FE87E031229
:100A18000F81120EA17F017E00120F817FCC120E72
:100A2800767FBE120E76120F198F11120F198F12C0
:100A3800120EA1E512F52BE511F52CE52B54F870F3
:100A480050E52BC4F854F0C868FEE52CC4540F4890
:100A5800FF7C007D0A1208DD8E2B8F2CE511540FC8
:100A6800FCE41207FBE4FBFA7920783F1206EBC09E
:100A780004C005C006C007AC2BAD2CE41207F6D0A5
:100A880003D002D001D0001205FA12082F8E2B8F46
:010A98002C31
:010A9900223A
:100FB600D3EF9400EE9400400A000000EF1F70F09B
:030FC6001E80ED9D
:010FC9002205
:100F8100D3EF9400EE940040120000007D0B7CBE74
:0B0F9100DCFEDDFCEF1F70E81E80E5B9
:010F9C002232
:1005F30002089BE86480F8E933E83360110460F093
:10060300ED33EC337009E8FCE9FDEAFEEBFF22046D
:1006130060DED3EB9FEA9EE99DE8C2E78CF0C2F768
:1006230095F0400CE8CCF8E9CDF9EACEFAEBCFFB34
:1006330012086685D0F05804700320D5B3E804701F
:10064300075002B2D50208A592D5EC0460F7E4CCBA
:10065300C0E0C398F8603B94186008400DD0E0FBFD
:1006630002087DE4FBFAC9FC8028E830E406E4C90B
:10067300FBE4CAFCE830E305E4C9CACBFCE8540751
:100683006010F8C3E913F9EA13FAEB13FBEC13FC5C
:10069300D8F130F52FC3E49CFCEF9BFFEE9AFEEDFF
:1006A30099FDD0E0FBEF4E4D4C701222DB030208A4
:1006B300A2EC2CFCEF33FFEE33FEED33FDED30E720
:1006C300EB02087DEF2BFFEE3AFEED39FDD0E0FBA8
:1006D30050130BBB00030208A5ED13FDEE13FEEF51
:0806E30013FFEC13FC02087D7B
:1006EB00EC4D6011E8497017ED33EC3304600DE409
:1006FB00FCFFFEFD22E933E8330470F802089B127D
:10070B00086658046009E4CC24815006285009027D
:10071B0008A52840030208A2C0E0EB4A7044B98048
:10072B0006D0E0FB020891EF4E701CBD8008EBFF7A
:10073B00EAFEE9FD80EBE98DF0A4FEE5F00207D4BB
:10074B00E9CDF9EAFEEBFFEF89F0A4FCE5F0CE89E9
:10075B00F0A42EFFE435F0CD89F0A42DFEE435F0A6
:10076B008067EF4E7005BD80D780C3EF8BF0A4ACD4
:10077B00F0EE8BF0A42CFCE435F0F8EF8AF0A42C0F
:10078B00E5F038FCE433CB8DF0A42CFCE5F03BF822
:10079B00EE8AF0A42CFCE5F038F8E433CF89F0A412
:1007AB002CFCE5F038CF3400CE89F0A42FFFE5F018
:1007BB003EFEE433C98DF0A42EFEE5F039CD8AF070
:1007CB00A42FFFE5F03EFEE43DFD33D0E0FB5007E8
:1007DB000BBB000F0208A5EC2CFCEF33FFEE33FE36
:0607EB00ED33FD02087D64
:1007F10075F020800E75F010800575F0087D007E83
:10080100007F003392D530D503120944EC334010F8
:10081100EF33FFEE33FEED33FDEC33FCD5F0ED228B
:0E082100E5F0247EA2D513CC92E7CDCEFF22C7
:10082F00EDD2E7CD33EC3392D524814006E4FFFEC1
:10083F00FDFC22FCE4CFCECDCC24E0501174FF8020
:10084F00EDC3CC13CCCD13CDCE13CECF13CF0470BD
:07085F00F030D5DE02094470
:10086600E9D2E7C933E833F892D5EDD2E7CD33ECD8
:0708760033FC5002B2D52251
:10087D00EC30E7100FBF000C0EBE00080DBD0004DC
:10088D000BEB6014A2D5EB13FCED92E7FD2274FF88
:10089D00FCFDFEFF22E480F8A2D574FF13FC7D80E1
:0308AD00E480EFF5
:100AA600020B26E493A3F8E493A34003F68001F235
:100AB60008DFF48029E493A3F85407240CC8C33351
:100AC600C4540F4420C8834004F456800146F6DF20
:100AD600E4800B0102040810204080900FF1E47EB0
:100AE600019360BCA3FF543F30E509541FFEE49315
:100AF600A360010ECF54C025E060A840B8E493A3DC
:100B0600FAE493A3F8E493A3C8C582C8CAC583CA06
:100B1600F0A3C8C582C8CAC583CADFE9DEE780BEBE
:010FF80000F8
:1008B000BB010CE58229F582E5833AF583E02250FD
:1008C00006E92582F8E622BBFE06E92582F8E22247
:0D08D000E58229F582E5833AF583E4932261
:1008DD00EF8DF0A4A8F0CF8CF0A428CE8DF0A42E2F
:0208ED00FE22E9
:1008EF00BC000BBE0029EF8DF084FFADF022E4CCED
:1008FF00F875F008EF2FFFEE33FEEC33FCEE9DECB6
:10090F00984005FCEE9DFE0FD5F0E9E4CEFD22EDFB
:10091F00F8F5F0EE8420D21CFEADF075F008EF2F45
:10092F00FFED33FD4007985006D5F0F222C398FD36
:05093F000FD5F0EA22D3
:0E094400C3E49FFFE49EFEE49DFDE49CFC22C4
:00000001FF
